:100000000C94F9050C9421060C9421060C942106FD
:100010000C94381B0C9421060C9421060C94210698
:100020000C9421060C9421060C9421060C942106B4
:100030000C9421060C9421060C9421060C942106A4
:100040000C9433380C9421060C94BA290C94562A3B
:100050000C9421060C94F11B0C9421060C9421069F
:100060000C9421060C9421067F8285888B8F9295B3
:10007000989B9EA1A4A7AAADB0B2B5B8BBBEC0C3A1
:10008000C6C8CBCDD0D2D4D7D9DBDDDFE1E3E5E7FD
:10009000E9EAECEEEFF0F2F3F4F5F7F8F9F9FAFB30
:1000A000FCFCFDFDFDFEFEFEFEFEFEFEFDFDFDFC7C
:1000B000FCFBFAF9F9F8F7F5F4F3F2F0EFEEECEAFD
:1000C000E9E7E5E3E1DFDDDBD9D7D4D2D0CDCBC89A
:1000D000C6C3C0BEBBB8B5B2B0ADAAA7A4A19E9B13
:1000E0009895928F8B8885827F7C7976736F6C6907
:1000F0006663605D5A5754514E4C494643403E3BFF
:1001000038687A428C75AF207B6A327D66A01749C9
:100110005C257059941B52421B67508B195B4D1420
:10012000604B86225F49115E49852A5E48125F4B0B
:1001300087325A4C1664508E3255451F6D59972B95
:100140004B5E2A7966A4677D6C388875B37C6D7FB9
:10015000499987C51718005DAC9AD90C041471C170
:10016000AFEE0E313A87D7C504EBDBC19CEDDB1A4D
:10017000E8C5D7B202F02FDAEEFBC6160443BE9DE7
:100180008FD9291655578A9EEA3926646DBDACF879
:100190004733717DB1B903513D7A6DA6B00A584419
:1001A000815DA3B40E5C478356A0B70F5B468253B4
:1001B000A2B20B57427D41ABBD0450397453B2A378
:1001C000FA452E68258194EC372059198E84DC2657
:1001D0000F4812E0F2C913FB3574F4EEB5FFE720C7
:1001E00078CBDBA0E9D10A6521358AD4BCF482370B
:1001F0002F74BEA6DFA20A185FAA92CBBF1E774C4F
:10020000967FB83270653B856EA82B41542C776081
:100210009A054C59206C559012574E17634E891C05
:100220005C4B125F4A85265E49115E49862C5F4B06
:1002300013614D8A31584E1A6854913551592372C1
:100240005E9C5B4554307F6CAA6E74653F8F7CBBAF
:1002500068657751A18FCE1B101865B5A3E23E3DAE
:100260002F7ACAB8F813273590E0CE0DE7D1DBA678
:10027000F6E423D2FAEEBB0BF937CFE6F2CF1E0C31
:100280004B499584E1301D5C518594F03F2C6A68A0
:10029000B7A3FD4C387564ADBD0655417E64A4B26C
:1002A0000D5A468259A0B70F5C478355A3B40E5A26
:1002B000458048A7B009553E794AACB9004C356F26
:1002C00029B9ACF43F28621C879EE5301952059687
:1002D0008FD41E07406DEBFBC10BF32C78FFD7AC1E
:1002E000F6DE176CD5C196E0C80193283A80CAB2F1
:1002F000EB923E146BB59DD6B6120057A189C3C4CC
:10030000667F448F77B12C796C347F68A216475E84
:1003100026725B951B50451C68528C1D5B4C156109
:100320004B87235F48115E4985295E49125F4A87E2
:10033000325D4D16634F8C3E54421D6C58952C4ACD
:100340005C287764A25A7F6A368573B1626F7A47F8
:100350009684C3131D0F5AAA97D60E09136EBEAC0E
:10036000EB08322684D4C20117DCCC99E9D817FAFD
:10037000C6D2AFFFED2CDCF3F9C3130140C39E8A54
:10038000D7261452548C9DE837246254BFAAF645F0
:10039000326F7EB0A601503C796CA9B10A574380F8
:1003A0005CA2B40E5B478359A0B70F5C468253A290
:1003B000B50C58427E4DA9BC05513B7553B0A5FB09
:1003C00047306A20BF96EE39225C1E8C99DE2911D7
:1003D0004B129EF7CC16FE3768F3E3B802EA2344CB
:1003E000C6DCA3EDD40D63DC368DD7BFF882322096
:1003F00077C1A9E2AE091D62AC95CEBD1D094F992A
:1004000081BB316F673D8870AA2A7F562E79629C26
:10041000054A5B216D57911C544018644E8A1A5D41
:100420004B135F4A86255E49115E49852D5F48134F
:10043000604C89365B4F1867539036504621705D8B
:100440009A5647522E7D6AA86D79633D8C7AB879A9
:1004500066724F9E8CCB1F120762B2A0DF003E2A4D
:1004600077C7B5F41728308DDDCB0AE3D5C6A3F3E3
:10047000E120ECFFEDB808F635CBEBF1CC1C0948D8
:10048000469682DE2E1B59508792EE3D2A686BB944
:10049000A0FB4A377465ACBA0553407D65A7B30C21
:1004A0005A45825EA3B70F5C478354A0B40E5B45E8
:1004B000814AA4B00A56407A4CADBB014D37715504
:1004C000B7AEF6412A641B8590E8321B5500958132
:1004D000D72109436FE6FCC30EF62F7CFAE8AFF98B
:1004E000E11A70D1C299E3CB0495273F84CDB5EED4
:1004F000963D296EB8A0D9A610055AA48CC5C06532
:100500007147917AB329746E36816AA411455028D7
:10051000735D970351471D69538E1D584C16624CED
:1005200087235F48125E4985285E49115F4A862D00
:100530005C4A15634E8B3157431C6A57942D4C5DB2
:10054000267562A0594168348370AF67707844940F
:1005500081C06C1E0A57A795D3080A1E6BBBA9E879
:1005600006372580D1BFFE1B21CB96E6D414FCCBE9
:10057000D1ACFCEA29D2F4E4C110FE3DC7E089D435
:100580002411504E8E9BE53522605781A8F44330EC
:100590006E7BB2A7004E3B786CABBE0957427F64BE
:1005A000A2B50E5B468358A0B70F5C478250A3B537
:1005B0000D59437E4DA6BE06523C774BB1A7FD4870
:1005C000326C27BDA8F03B245E1E8A9BE12B144DA4
:1005D000169D89CF19013A65EEE4BB05ED2640C5AD
:1005E000D1A6F0D8106DDBCB90DAC2FB9F31257A13
:1005F000C4ACE5AE041E65AF97D1B3180A519C8414
:10060000BD376D783F8A73AC2D7D68307B649E1852
:100610004B5D236E58931A55431A654F8A185A4AF0
:1006200013604A86255E49115E49852B5F4812603A
:100630004B88365B4C1765528F325247206E5B9960
:100640005549502C7B68A6647B6E3B8A77B67D68E3
:10065000714C9C89C81317055FAF9DDC0603297494
:10066000C4B2F10C2D3F8ADAC807EFD6C2A0F0DE83
:100670001DEAC0E8B505F332C8ECFCC9190745BC52
:100680009881DC2B1957528990EC3B28666EBBAEE3
:10069000FA4835737BAEBB04523E7C63A7B00B595E
:1006A00045815FA3B40F5C478357A0B70E5B4681BB
:1006B0004CA5B30A57417C42AABA034E387352B4D0
:1006C000A0F8432C661A8392EA351D571C9382D9F1
:1006D000240C456DE5F1C610F93270F9EDB2FCE479
:1006E0001D74CCC69CE6CE0797223087D1B8F18620
:1006F000382A71BBA3DCA20F075DA78FC8BD60724B
:1007000049947CB62A726338836CA61443522A75C6
:100710005E99004E461F6A548F10594F16634D88DC
:10072000225C48125F4985275E49115E4A862F5C2C
:100730004B14624E8A3359401B695593334E5B25E7
:1007400073609E58435632816EAC60726742917FEF
:10075000BD6A600954A492D1160F1D68B8A6E53C85
:1007600038207DCDBCFB1F223693E3D110E2CCDCD8
:10077000A9F9E726D0F9E3BE0EFB3AC3E5F7D1218C
:100780000F4D499399E332205E528396F2412E6CCD
:1007900079B4A5FF4D397764AABC0856427E64A59A
:1007A000B50D5B46825BA0B70F5C478351A3B40DC8
:1007B0005A447F4AA7B108533D7848AEA6FF4A3352
:1007C0006E26BBAAF23D266011899DE32E165007C6
:1007D000988AD11C043D63ECF9BE08F0297CC0D294
:1007E000A9F3DB146FD6CC93DDC5FE9D2D267DC706
:1007F000AFE892031368B29AD3B5170F549E87C01F
:1008000038687A428C75AF207B6A327D66A01749C2
:100810005C257059941B52421B67508B195B4D1419
:10082000604B86225F49115E49852A5E48125F4B04
:1008300087325A4C1664508E3255451F6D59972B8E
:100840004B5E2A7966A4677D6C388875B37C6D7FB2
:10085000499987C51718005DAC9AD90C041471C169
:10086000AFEE0E313A87D7C504EBDBC19CEDDB1A46
:10087000E8C5D7B202F02FDAEEFBC6160443BE9DE0
:100880008FD9291655578A9EEA3926646DBDACF872
:100890004733717DB1B903513D7A6DA6B00A584412
:1008A000815DA3B40E5C478356A0B70F5B468253AD
:1008B000A2B20B57427D41ABBD0450397453B2A371
:1008C000FA452E68258194EC372059198E84DC2650
:1008D0000F4812E0F2C913FB3574F4EEB5FFE720C0
:1008E00078CBDBA0E9D10A6521358AD4BCF4823704
:1008F0002F74BEA6DFA20A185FAA92CBBF1E774C48
:10090000967FB83270653B856EA82B41542C77607A
:100910009A054C59206C559012574E17634E891CFE
:100920005C4B125F4A85265E49115E49862C5F4BFF
:1009300013614D8A31584E1A6854913551592372BA
:100940005E9C5B4554307F6CAA6E74653F8F7CBBA8
:1009500068657751A18FCE1B101865B5A3E23E3DA7
:100960002F7ACAB8F813273590E0CE0DE7D1DBA671
:10097000F6E423D2FAEEBB0BF937CFE6F2CF1E0C2A
:100980004B499584E1301D5C518594F03F2C6A6899
:10099000B7A3FD4C387564ADBD0655417E64A4B265
:1009A0000D5A468259A0B70F5C478355A3B40E5A1F
:1009B000458048A7B009553E794AACB9004C356F1F
:1009C00029B9ACF43F28621C879EE5301952059680
:1009D0008FD41E07406DEBFBC10BF32C78FFD7AC17
:1009E000F6DE176CD5C196E0C80193283A80CAB2EA
:1009F000EB923E146BB59DD6B6120057A189C3C4C5
:100A0000667F448F77B12C796C347F68A216475E7D
:100A100026725B951B50451C68528C1D5B4C156102
:100A20004B87235F48115E4985295E49125F4A87DB
:100A3000325D4D16634F8C3E54421D6C58952C4AC6
:100A40005C287764A25A7F6A368573B1626F7A47F1
:100A50009684C3131D0F5AAA97D60E09136EBEAC07
:100A6000EB08322684D4C201615D4D1E61519A6C3F
:100A70005A50145F758877734A128C4C86525D48C1
:100A80002B614FA587586F1464828888624A17A02B
:100A90004C8BDA5D4364614CB59A5F78145F4E8885
:100AA000A30C4A12304B88725C4AE9604C60AC5D22
:100AB0009713612A87B6B84B174A4B8B4E5C4A098D
:100AC000604C7AC15DB213612D87C8A14B125C4B9B
:100AD00086D05D4811614ADBDB5D10145FA388DEC0
:100AE0006C4A12914C8BE45D4814614A89EE5F4177
:100AF000145F5288F0534A19734C89E25D483D6196
:100B00004AB2015F67145F63880F7E4A17904C8674
:100B1000235D4F4A614CC114580B14649188140D25
:100B20004A148E4C86775D48E3604C5A2E5D9113D3
:100B300061248730804B143F4B88DC5C4FFD604F55
:100B400077435DB113613E874BA54B14424B87B091
:100B50005C480F604A86555F49145F9F885E074A6C
:100B600012B84C866D5D4D1E61519A685A50145FE3
:100B7000758873734A128C4C86565D482B614FA55D
:100B800083586F1464828884624A17A04C8BC65DB8
:100B90004364614CB5965F78145F9B889D8C4B14C1
:100BA000334B887B5C4AEC604C63A85DA813612FD3
:100BB00087B7B24B17504B88405C4A06604C80BDEB
:100BC0005DAD13604887C7A04B125F4C86CD5D4872
:100BD00067614CDED75F13145F7B88DA6D4A175D5F
:100BE0004788E0A1B4111E8169D1B7711A9757BE29
:100BF000A16758357D07541886A9EF1D1644EFBE2E
:100C0000E9F10F2969EEA6AE131E4E1501CCE54998
:100C10000F505EE448A9BD46FA651B9E54A30585A6
:100C20003626BFBE2C3E0B74F3BE4DD180E0832E22
:100C300050DD279A0FC3E75980086CDDD10452DDDF
:100C4000699A5519445E64A966DEAAD150DD346400
:100C50005917DE5F59A3EE4A95CBD14819F3D9183D
:100C6000F05FC9A4ED4AE5F4D04821F0D68660CA09
:100C70006A1766DE05E4D148A1EFD9865CCFC412BD
:100C80005EE0CE727C6A1A536916065F6B34873950
:100C900093057D4F21F0D5868C9E64AB7F29A50CF2
:100CA000D24812F5D918365FC9A4ED4A853A17BD66
:100CB00091EF728734226001ED38245438A91FF275
:100CC000788B42CFC712DEDC12C8DED89E5FCAD551
:100CD00050CDC41266DEA7F427B932AE6918535F4F
:100CE0006B342F3DB27FDED84B60D916D75CD9A4C8
:100CF000F04A0560CF4819F36916C05C79A2994B98
:100D00000590CF48A1EFDB86204970188739939B67
:100D10007D4F973EC9189B5F41A65A4A989F3ECA8D
:100D20009F3ECB0CAFB5D5FE0C3843C8DDCEA5E554
:100D3000EE0C84D900F5B032E5D92EAD58E5991006
:100D400021D53B9C71D399CD4BC327E85B075FDC72
:100D500058976ECF8DC0B1DB10F0581843CD86A4E4
:100D60003DDC95F12148A44332B3F9BEB03F643273
:100D700096919FA9E23E208695CF3412EC78062FFB
:100D8000DD79F15239656851B6304DA583C2DEC8B0
:100D9000A2DF4186A6C9D894DECCA50A474A338192
:100DA000B2757E5FA4A25ADA8639AEC8F18B521AA8
:100DB000387D6801564A55349EDA905F18E4B900D0
:100DC00056602279463381D8E0EF6816C3CFB6A1CA
:100DD0004DD98D4651DA30F118181ABE40F26E29FD
:100DE0009D21D266A13EC924185FC8B04E56157029
:100DF000AE44228236DB0811CA92E66CCE0DDFC803
:100E0000A3DF2586E9CFB5A262C97A8ABE641AF348
:100E100018E492CF36122660A5EA91D830EF581622
:100E200028CB46A47DDC54B49EA91A3F5965369E52
:100E3000C540EE2905AAAE4892FD3992ACC1B91E53
:100E40006F6D7215A00694DFD1A803AEC892F0CAE8
:100E50006150B3D80DEF4B05ABDFA93E67DE540000
:100E6000DED8905F119C46AD86A27DDA94FC56DCFC
:100E700019F378174BCC06A3BDDBF4E921DBA0F016
:100E8000E8172DCCF6A32DDB641BB1DB10F058184E
:100E90008FCD86A43DDC522080FE7EF5583B66CA8D
:100EA00097D06D07521A804828F429655DBECBF2B1
:100EB0005FD99221DF19F255E2A9E8BE6C3F8F7528
:100EC000510137658882D26658BE21AF4E4AEE5135
:100ED000AE4489FC3992C77AA4675C98085CD66AEC
:100EE0001A520345675F49206F687DEAB844087B62
:100EF00037940D41C8F1EE2911F6C356F96D42A49D
:100F0000E6DEBE91254A360650DDD599B91A6FCB7B
:100F10003660C7D8FF9A37CA8BE1E909ADDA8C127F
:100F20000F4A93B79A7281F3AA1A551122A0DAD800
:100F3000F0B222CAD3E21C09FE5FF8126CDD49044C
:100F40002EDC72F3C8D4C07034A0CBCC03CE904852
:100F500012F4A9672ABA47A5AA800D7857BD711E59
:100F600049DD7F11B1129EC9D6E9A4CBFAE005078D
:100F7000DBDC97932BCB53765FDF7140C76970CA78
:100F80000548E66C8E711289095FA906FDDF2D2ADE
:100F9000D3520DB429B491F3E1B494CA334BF94A56
:100FA00031A03EA9813ECA733DBA47A53D824B811F
:100FB0008967F98C42B3F0711E40C678FE9295485D
:100FC000CB5F6965F4BEE0126CDD60F2D9B6171E26
:100FD000407F22CABE094EDD86395F89113E1086E8
:100FE000565F69F18E29C5050FAD1FF273C069A365
:100FF00051D1254A3BF47EA9413E986CAFBA47A532
:1010000039829D152AB9334BEBB328BEFB3F0455FB
:101010003C0D9948C75F57195464BC12C5D086DF90
:101020005EA90AEB4208ACD3C394F9D620AEB2C491
:10103000FDE1D607C9D3B7942C4A86AD3EAB8F42AB
:1010400057190E6948419F3D7848B01B0EADCA65DF
:10105000C4DBD822DE2909D0CDDD91EFC886C64891
:1010600041058D180788CCA91FF2A69C62CAD641FB
:10107000DEDAD77050DD04885917F55824A76DFFC4
:101080007D1580F6201C164457CF86A27DDA941E6B
:10109000A1D900EE281559CEF6A10DD9240DD1D92C
:1010A00090EEB815FBCE06A19DD9B43B56DC20F1DD
:1010B00068187DCD96A44A4A8D384EA99A3FD965C5
:1010C000C8C1B91267E875CA46D6016B5AA9230888
:1010D000B7605FC97754BE6494DFD1A835AE821281
:1010E00008701C1EFEDCCB8D940EB6D7249ADCD281
:1010F00009FECB56B77D00A473D5D59C0BD44374A1
:10110000D766AB8DF4B4BD79EE0E18DEB18C63C832
:10111000396D82A42CD1669CE7CA1F9A8248FEEFE3
:10112000451633C969968FCE7D28B01B0EAD8D0A4A
:101130005FD70822BFDE7E3657DCF0EF181621CFCE
:1011400046A266DE54D681DAFD5FD10AD5DB212CBA
:10115000D7540D7429B491F3E1B454CA334B89CEFA
:10116000C1E413CC6FE35719466547A5A58314E680
:10117000D852AA85D082E6CBCF20F5681DF2D1C225
:101180003DDF86060645DA1C08701C76FEDCCB8D3A
:1011900003B43B71D140E6701012C2C2BEE9071021
:1011A0007FCF86A266DE9535774B91EF9589267DB8
:1011B0005005DF290526774B91EF63882CCF521419
:1011C0005EE00E37DED82D61D916D75D49A8B73D50
:1011D0000540404AA1EF6888D8C96005DEDAAEDD77
:1011E000DC2991F1728766CF6013412E780DCEA96C
:1011F00032EF6BA885AE961207A035BB72D833814B
:101200005279863E961201A0354972D833815279BF
:10121000983ED670F179E6E0DEDA3A60511AE25F84
:1012200009F1AE293F241ECA62E1AB085FDD0998CF
:10123000AFD0E7B42DCE55E19E085CDD3E94A2D040
:10124000DAC638CE88E5511A67CC76A3ADDBE4DD8B
:1012500031DB90F0D817C9CCE6A31DDB54CF81DB7E
:1012600000F048176BCD56A42DDC64F85E9920F091
:10127000163CACE941402777E5E8D84B81EFD087B1
:1012800000BED9F16CDDFDBD7CA346478D6FDCBD92
:1012900047A58C84F0166967398CE20815B7013FC1
:1012A000DF29DD8D3E678D8A6307785F24A2DADA55
:1012B0000D9629B491F3E1B4B6CA334B8533B756D2
:1012C00015A370415719E865CF3FF5772DE3E76720
:1012D000045F090905DAAB9551CD4CDAE848313E97
:1012E00079654B5F47A588842CE8C84829745575F3
:1012F000A006FE0B0EDD3C0FEEDDD85FFF86F0CAC8
:10130000674CF94A31049B48C55F57197A67D21276
:10131000094A41128D485EF1A61877CD34A49B4A44
:10132000DD0E1766938DDCB48D71FD401A4A522E86
:10133000A5C85ADF58B425736B3E92782E3CC64838
:101340001FF277C0DF5FE512254A3B4A50DD8897E0
:101350002586995FBA12E2CC1ADAF8CAC8E14306C8
:101360009F01B394E72A158716476A7C3BB567AEA1
:10137000D5E06DD994E551D9F0EF181663CF46A2A8
:101380005DD9741381D9E0EE081525CED6A1EDD92B
:10139000040131D970EE9815A7CE66A166DE050E60
:1013A0006E4A998162752EEFC97460090D1CD135A2
:1013B000991759170D5EC5F1DEDC3DBBDAA991F135
:1013C000058548BED9F16CDD0EF14EDB4C60591736
:1013D000EA5C41A6F8359417CF197A525917625E24
:1013E00069A2984BB574654B40BD88D4DCCD7213AF
:1013F0007EDCBFF15A8931EF0585DDA1A4E0EEDA8C
:101400003E01C65E5A4EC916325CD9A2994B8699E6
:10141000CEDA4C60C9182C5C41A62DDC4D32DAA323
:1014200091F10585E4A143D1DE2A93BFB440D1F107
:101430000485B6B6C9A41A4905DD5789993E5719DE
:10144000AA5789A4194909AFDEDACD5ED16640CA30
:10145000A31A2DDA8DC0DAA091F1058554CBC9A469
:101460001949098BDEDACD5ED16764CAA31A66DE3C
:1014700054E2966699817275FCB2C9A41A49059A1C
:101480005A899546C9183A5EC1F66CDD6F84DED87C
:10149000CC5E15A88DAADDFAEEDC419B91D819F33C
:1014A00018177DCCA6A35DDB943A41DAE0F1281849
:1014B000B08E84C83C00EFB6BED94B603915855C50
:1014C000C120DFA9EE4624CA1FF2568FA5DF4F4088
:1014D000D8CA9CFC538919F20A8D0B56C8F11F5DBE
:1014E00056E557BD913E5719D054B112DFDC14EECA
:1014F0009F5DE262CA7C77BE69A2984BB56C654B72
:10150000F3743C8B0DAEC9F16DD9949B81D8E0EF9B
:1015100068161DCFB6A14DD9648991D919F3181752
:10152000FFCCB6A36DDCA4B491DAF0F15817E3E96F
:1015300097C85677EF34D748996DB20832CA441B22
:10154000C7CA0B6C50DD4068D8B2FC5FE1126CDD9D
:10155000D55B51D9F0EF181647CF46A25DD964CFBD
:1015600091D919F31818B9CD46A32B0063DAF048C6
:1015700060BDA8D455BE79F16CDD1471D7C820EEDA
:1015800028164DCF41A66DDCA41A91DAF0F1495529
:101590005DE997C85EDABF954ED84C60D194D4DD32
:1015A00020946CDD92AF37C8978D571983540392FE
:1015B000E278932771439547C918065EC8F17EDA31
:1015C000BFC36ED84C604B9CDB594001DE29945F51
:1015D00051D9F0EF1816C9CF46A266DE944E41DA13
:1015E000E0F12818E48E46A32B00635C5ED84B60C4
:1015F0005916C95CC12089CCCF7A37CA1FF2568FE1
:1016000069DFCF406CDDB40D14C8958D5719215496
:101610006292E078938171439547C918A05EC8F142
:101620007EDABF216ED84C604B9C39594001DE29CF
:1016300094A151D920EE2816F7CF56A26DDA8DAAC3
:1016400091DBF0F03817B9CC47A5A88115DED74B50
:1016500091F1D18734CF0415CEDAD35FD66E885B93
:10166000C91AFA7147A5D8836168954891F199879D
:10167000E0CD1813FEDCD775EEDA646058B38EBE89
:10168000863F4E2964ABAEA9008C39657370B93EB4
:101690001EDB0F918EDB9C602917165CB9A3EB4B08
:1016A000E530114D81EF998920793E0EDEDE1D80F7
:1016B00050DD8B9825867D5FC9A4B24B152E0B4B50
:1016C000B1F19F8774CD1E131EDB13C98EDBA060A2
:1016D0002917425CB9A3EF4BE5480F4D81EF9B8979
:1016E00068793E0EDEDE1DC850DD8B982586255FAD
:1016F000C9A4B64B1566074BB1F1A3874CCD1213A5
:101700001EDB17018EDBA46029179E5CB9A3F34B87
:1017100009FECFA9A1F1868798CD75135DD9748F85
:1017200081D9E0EE511AA46EF101C678F5CDDEA99B
:10173000A13E57194E6469F18E29C5D10FAD1FF234
:1017400077C0D95FE512BE29F5A9DEA1B0415719CE
:101750008F677F408578899763A53D4AD569C3BD6A
:10176000901256786E4A1566638DB1B4157109A44E
:10177000F44BD5E0C94B71F1E1870ACDD013174A7C
:101780000CAECC66C08D07B4345F84128D2FB76E5B
:101790001DA96B415719B8659512294A050EC44B0E
:1017A000A1F1E48704CDD5130EDC22A956DC40F06C
:1017B0008817FDCC16A3CDDB042BD1DBB0F0F817D6
:1017C0007FCC86A33DDB7455A1DB20F1681801CDE9
:1017D00096A42B006362BEDE2014411902E146CFBD
:1017E0002B08C5720D4D61EF9D898C791E0EBEDEF2
:1017F000FBDEDED8AF60D916675CE9A2FE4B356E22
:10180000FF4B956DDEA4A041FE30DEDC230FCEDA67
:10181000B060E918B45CF9A4FF4BC58A0B4D61EFC9
:101820009F8944791E0EBEDEFB06DED8B360D91652
:10183000935CE9A2024B35A6FB4B956DDEA4984163
:10184000FE30DEDC2747CEDAB460E918E85CF9A4A4
:10185000034BC5C2094D61EFA1893C791E0EBEDE66
:10186000FB4EDED8B760D916CF5CE9A2064B35FE39
:10187000F74B956DDEA4D041FE30DEDC2B7FCEDA57
:10188000B860E9182C5CF9A4074B651A984F013E23
:1018900038DC6C11C992DF799E6D50DDFD83C94A39
:1018A000296E4001310A0536D14F958E5279D69B6B
:1018B000B4F54D777955A167BB42D3B31EBED33F74
:1018C0001833F0EDECA98C8C696AF8BE73A087D848
:1018D0000935CCA9AFEDD614F45F50125E29ECDEC9
:1018E0008848FEEE46158B5FBD12DFDA167C114884
:1018F000F96C42A3275FA4A35BDBC2FAAF4872EF87
:10190000BA1683CFD8A27D4A939D1973ED5F1486D2
:10191000875F612C9754571673DA4EF17686110162
:101920004A414F3F45B5624BE1EE8687ED4A981537
:10193000073A85D3B3C40FEBAA164BCFB7A04BD849
:101940000D6629B491F3E1B446CA334B8D31B7A388
:101950001BA66D4157197865D2120A4A2ED0E4C4ED
:101960007EEFC616E9CFD5A26CDDFC528248DC5F63
:10197000321288D3C8A4EFDC26EAEFDA0BED32147A
:101980008F014A41173F8D139F41E2661917B35CDF
:1019900089A39A4B0575CEA9ED5FE4471CCF1913B7
:1019A000EEDAD6A1FED86360F916F95CC0B4F8ECA3
:1019B0003012E2EA71EFF787C8CFE613E670FC4217
:1019C000DEDCA98D5719BC640212BA4A055C064BCD
:1019D000A1EFA28774CF13130EDAE0D9D3EAAF01D7
:1019E000F8285AF929A2084BF578F54B9985C08259
:1019F00070CBD1406CDDFFCD37EE8B05D42C62F976
:101A000020B2D8EA10A4C2E8B65FDD8602CA674CED
:101A1000C94A011233E88FFFD82682FB60B698EEE0
:101A2000D08402EC1FF277C0B35FE512254A3B2E4B
:101A300050DD87972586FD5FC498FCD034BAE6C296
:101A400051EE9D8714CE1C13BED9DB492ED9686098
:101A5000A916FE5C39A20B4B0D7E29B491F3E1B4BB
:101A60006ECA334BC94A01669D48C35FEE86FA5F72
:101A700047A58C84D07402487EFFC726F3FFD1B6F9
:101A8000054A1B8250DD3F99E486265F8C12124A7C
:101A900093052870ED5F148611D5D39C09D44114A9
:101AA0009D48C35F722A9CFB02B6BAEE93397072EE
:101AB0005C5FA586DDFF33B2E9EA211AF948A75F2A
:101AC0005719EC65D2120A4A4AC8EA481FF2BFBE4B
:101AD0000C5F8212EBD4235CF1C2C9ED6915485C3E
:101AE00079A1F54BC575C64B61EEE2876CCFD31378
:101AF000EEDA20F1FED8AD60F916675CC4B8FCF0F0
:101B000034A6E6E2FB46B7B3EABE373F3C4AA299A9
:101B1000E0EABE012F67E5BEB3B847F0AEF86AA9A8
:101B20004B01722824BEE49E1CD6F2BA23D8CFED16
:101B3000F614BA793E0EDEDE1D1650DD8B98EB866C
:101B4000D15F47A58C842046F248FAEB43122EDF82
:101B50003892E0CA18D450DD88972586975FA09EFA
:101B600058D605E0CFCAB3E1FC08B95FC4A1FBD9E0
:101B700032E1E2D9FEFF4726B9CE98A13FD976EFF0
:101B8000A0EAFE011086305F69F18E2DD1640BA5AD
:101B90001FF224BE13A35CD1254A3B9A7EA9414281
:101BA000956EF7BA47A588849DBFF2BD208C396534
:101BB0007F70B9F53D77815EB167064248B34E73D9
:101BC00043D16D7775259167014228B330B7A63FA1
:101BD000533584FDAE64D85FFF86F7FB77B6ADEE74
:101BE000DD4850DD3F99E486445F8C12124A937BB6
:101BF0002970AC5FF4864A5F9A12ABDCE26E33DA8E
:101C00008EF18686EDFBB3B63FD9769BA4EEFA053E
:101C1000A1B45B71CB40F1782A36EA66CD5F1686B7
:101C20002ECA0E4B3A4A5026D044B07BF22694FF7F
:101C3000C4A4FBDC3F96F7EA20BD3212C6D37DA7D1
:101C400058D86ECC5D791A4EB754E09DCF416739B4
:101C5000CE9050DD5B966916D05C79A2E74B415E71
:101C60003C528469B918E15C29A4E44B15FED74BBA
:101C700091F1D187F4BED9F16CDDFD417ED84B6284
:101C80007916B95A09A29A4DD518634D1FF277C03B
:101C9000C6700E3F56776EB9604819F2AAA1EF429E
:101CA000C7FAE6770745C667A43E12B3785F24A259
:101CB000DBDA1222C2D81FF2C3BFBF735D3E8D763E
:101CC000C3ECF748A95F5719E6659512294A78CE03
:101CD000DFDAA2F1EA1867CD7612324AA24F43DB6F
:101CE0002EF06617A95F83A56740057B0E4BA1EE1A
:101CF0009A8752CE1B130ED9D8FB9ED96560191551
:101D0000555CA9A1B44B7597094B9ADFE306A5DF93
:101D1000F592E7D81F9AF5C6CDEDC916445CD9A255
:101D2000B74B25B2044BC1EFA487A7D1D7A00DD8DC
:101D30003D92D7CCABE3F40A84DBC0B4F8EC309C22
:101D4000E2EA7AEBC312CDD3D59E8BD6C3C011C4C1
:101D500069FF57197A6562129A4AEEFA24E89CFFE5
:101D6000E526C55FDF126CDDB352C548BD5F0C864A
:101D7000C25F47A5D4822076F248D65FFD8670CA3E
:101D80003E4A3A4A5084DEDA6160D918DD5CE9A443
:101D9000B04B35000D4B5EDEA705F5DE3195214ACF
:101DA00037A073C44FEB9812F0FF47A58C84F20C58
:101DB00020EAA001E12CDFFF33B2E9EA211CFB4855
:101DC000A55F5719EA65D2120A4AF26A20E8A0FF15
:101DD000E12ADCCA3E4AF94A31D89948C75F571907
:101DE00097679512294A05740A4BA1F19E874ECD3B
:101DF0001F130EDCDCF79D48C35FF0866A5F47A5C2
:101E00008C84F00222487AEBC31281D3D59E034A18
:101E1000191050DD3F99E486B45F8E12144A938BFB
:101E20002970AC5FF5864BD3379EEDD61D8C50DD07
:101E300087972586FF5FC9A4B64B15A8074BB1F15C
:101E4000A387F2CD1213C7D6FFC4D5C4ADEB691674
:101E5000305C79A2BF4BC5C63C4B61EFAC8750CA22
:101E6000674CC94A01649D48C35F6916305C79A21A
:101E7000BB4BC5E2004B61EFA88774CA674CF94AB7
:101E800031809948C75F5719FE672212DA4AEE2E51
:101E900024E89CFFE526B6CF2D138EDAEA9F1ED8E4
:101EA00077609916C35C47A58C8420AAF248D85F56
:101EB000FF86BCCA3E4AF94A31B83ED8C160B9165D
:101EC000715CC9A2104B1556ED4B1FF2C0BE125FDC
:101ED0008212DEDC35D7CEDAC260E9186E5CF9A476
:101EE000114BE321DD791A4EE945CACF1D138EDA75
:101EF000DAF31ED867609916AF5C89A1B64B556FAF
:101F0000074BF1EEA387F6CE1213284A3E0C50DDA4
:101F10003F999486485F8E12144A2C1AC8481FF2C3
:101F200077C0B95FE512234A392850DD8897E486E7
:101F3000C871A040A478D81836668A8D89188A5C42
:101F400019A4134BE5D6E84B81F10087CE71DA4036
:101F50000D78437CE248DE5F5719664C9512294A9A
:101F600005F2E64BA1F10287C8CDF3130EDC406DFC
:101F70003ED86560B916235CC9A2B44B15EC094B79
:101F80001FF290BFEF5F3512BEDADD892ED86A608E
:101F9000C916C85CD9A2B94B930D1973BC5F0586ED
:101FA000665FF3126CDD6FB6CEDA9460C9182C5CF4
:101FB00029A2AE4BF5240F4B91EF9B872CCF1A1320
:101FC0006CDDCCF935488D5FA965BABEC9F9FD2C29
:101FD000A540E64B41EF028798CFF313AEDA40DD20
:101FE00050DDF0975719A164E2121A4A4BECE4480D
:101FF0001FF2339664CDC813DEDC05F93ED8C1600C
:10200000B916B35CC9A2104B1598ED4B3D428668DA
:102010005FBE1DF56CDDB32C50DD58982586D55F6D
:10202000A9F950291AA6DACACC1FCDB525AE5ED2C1
:102030007EDAD5316ED862608916685C19A2B14B20
:102040004F40E7481FF277C068CFFD138EDA3A4D54
:102050001ED8C7609916E15C47A5D58293C9625B1B
:102060007C5FC58604CD5B12CEDC986ADEDA255F24
:10207000D918675FC9A2B64B15E8074BB1EFA38724
:1020800030CF1213E7D81F08F5C6CDEDC915365C61
:10209000D9A1174B2505E44BC1EE0487205F8412BC
:1020A000034A19A250DD3F997FB38D70C0B4FBEC99
:1020B00026B066663A8DCEB42C71EA401078052CB5
:1020C000324BA1F1B68766CD27130EDCF4CFDED8F4
:1020D0006560D916815CE9A2B44B354A094B9EED87
:1020E000E7144DD1F1B41A4A52E8CE11B65FDD863D
:1020F000FECA674CD477ECD906675A8CEC866C5FC5
:10210000CC40F278282AEC6691F1B9879CCD38133F
:10211000FEDCF711EEDA8460B21260D3C29EFAD60A
:10212000762007E85EFF58B436716C4092782E2E08
:10213000C6481FF277C07D5F1512CBD603B0D1C45D
:10214000A9FF3C86E65F46407C78AA646A66BA5F6F
:10215000E1865CCA674CF94A31589B48C55F5719FC
:102160001667EE12F44A93F37072ED5F1486EECDAB
:102170003D13EEDCFA77FEDA8760F9180B5CC9A133
:10218000AE4B15130F4BB1EE9B873ACE1A13234A71
:102190003990FC48368D7DB4315FD1126CDDB3A42B
:1021A000F948A75F571988659512294A053E264BBD
:1021B000A1F1C28714CD33130EDC00B99B48C55F73
:1021C000D9DD335F10B2ABEA94E64066368D7DB45C
:1021D000795FD1126CDDB3ECF948A75F5719F06550
:1021E0009512294A0576224BA1F1C6874CCD3713AB
:1021F0000EDC04F19B48C55FF0866C5F47A58C84BC
:102200006100954891F1A58798CD1413FEDCE30D8C
:10221000EEDA7060B61268D3C69EF6EA2C1CC84887
:102220001FF277C0F85F8212DEDCE529CEDA726039
:10223000E918505CF9A4C14BEEB424C49CEBE51240
:10224000E75FDF126CDDB37C8248DC5FC9182A5C73
:10225000D9A4C34B25C6384BC1F1B087FD9EC341FD
:10226000673923A3DED80F60D1A863AAD0D1DEDA04
:102270001477D66A1A4ED645F2BCDBF16CDDA9762E
:102280009ED93B601915AD5CA9A18A4B751D734B96
:1022900091EE778704CE6613FED9B599EED94260E8
:1022A0001086145F69A2D24BB5382B4B51EFBF8714
:1022B000E0CF3E136CDDB38C75484D5F0E860A5F30
:1022C00069A2C64BB554374B51EFB3879CCF22134D
:1022D0006CDDB3E8C548BD5F0C86685F47A5D58255
:1022E00093751973ED5F148678CD0213DEDCCFEDA4
:1022F0009948C75F69168E5C79A2D74BC56C244B91
:1023000061EFC4870ACA674C894AC10A9B48C55F06
:1023100069167E5C79A2CB4BC588304B61EFB887DC
:102320002ECA674CF94A31269D48C35F5719596731
:1023300047A5A58361349548A1F19687BCCD0513C7
:10234000254A3B427ED88D607916375C09A2DC4B6A
:10235000D5C0214B1FF277C0335F3512234A395E57
:102360007ED881607916175C09A2D04BD5FC2D4B25
:102370001FF277C0EF5FE512254A3B7A50DD889760
:102380005719C5649512294A151A114B91F197876F
:10239000979ECFF1482D777781482EF0D31A77A9F1
:1023A000A9A76DFF7D3180F6201C164473CF86A24D
:1023B0007DDA9422A1D900EE281575CEF6A10DD9AB
:1023C0002451D1D990EEB81597CE06A19DD9B45F0E
:1023D00056DC19F3181709CCA6A35DDB944E41DA3D
:1023E000E0F12818885FA212EA4A1C145A89118564
:1023F0005AACFA45501CDC4A65F7AF57E85B6045BC
:10240000C045981C1C4A0D2029B491F3E1B420BDAD
:102410007700AD38E4FA50DDA299E08658797E0E57
:102420009EDED90C50DD0A9977D814115FD1154A78
:102430000D1629B491F3E1B416BD7700AD38E4D0A0
:1024400050DDA29955A05B55D112A270BCB01EDC24
:10245000658D5719AD65636C98985CA55D8941F3EE
:102460006A1A5D1180123DDA54F841D820EF481500
:102470009FCE96A12DD98DE291DBF0F0381781CC5B
:1024800046A47DDC1084C24846F3701A9BCB4EA64E
:10249000B4314ABD04ACE68CA0687F7016F6537761
:1024A00045BB8F43F3683C8F88BE79F19E29E44C8D
:1024B00050DD3F99F086205F47A58C842CBCC8482E
:1024C0001FF277C05F5FE512BE29F52BDEA5B04194
:1024D0005719A467D2120A4A4CD8E8481FF277C0AD
:1024E000A6711E40C678FEC89548CB5F6816E1CF3E
:1024F000B6A14DD9646591D919F3A916805ED9A208
:10250000D849A5E36EA9913EC071487109759EDC5A
:1025100001112EDA8B5E8916625E0F0E5A18C58E77
:102520002649613E8AF5762E4B3F6009C9220B563B
:102530001BF22B7CB07566709D98AD0B6F4C3A55B5
:10254000A9183E5ED9A4D8498DDCA248DC5FB365EA
:1025500020BE47A50E84EBDC7866413E1286D6513C
:10256000D030D129A76A6D568BF32A7CEE51DA3030
:10257000F3D409F856DC40F0881735CC16A3CDDB30
:102580000413D1DBB0F0F81737CC86A33DDB741D04
:10259000A1DB20F1681859CD96A45E19854D93FEF4
:1025A000EF154586C1684101C22FEC202EA9954444
:1025B000D9652E5F6F2C9554AD26FE483AFD999251
:1025C000F8C1191E6F6DDF4417CA95E7DE0EE25F92
:1025D0002F35D56D14D4926DEE82BF865CBED9F1D5
:1025E000794A2509D467B746E3B34BBEE33F0F757D
:1025F0002172D5CA9CDFE50670C1D912E7E8B5F2B1
:10260000C6D6416B5AA924C3891281E615006CD441
:10261000A16B5AA9BDDFF392E8582004E248913E2D
:10262000D965855FDF126CDD1612FB48A55F57196F
:10263000E765B1127FDCB6A4D1483CDF8506110105
:1026400076609ACCB0C69A45E67A2FA1BB42634128
:102650008F4E06A551D920EE581555CE96A22DDAEB
:10266000A4F051D810EE3815B7CE86A11DD934FF8D
:10267000C1D9A0EEC81519CE16A1ADD9C4ED71D936
:1026800019F318175BCCA6A35DDB941841DAE0F1CF
:1026900028187E5F3212EDD20DBA57BD681EE4864F
:1026A000D7A14DD18070B88078524869570EBEBE10
:1026B0008012164A9321EE72BD5FB2B544AEA39A62
:1026C00059D24DC21DA9996DE2A480CBA808DE584D
:1026D00016CEF7485979A29054D7D49AEC6424D4F2
:1026E00016D6A15F9224D65311B08E5696C997483C
:1026F000C95F571944652720DD68A53BD866A13E10
:102700004586EC51B6304A5882169EC9E2DE4586AF
:1027100021C8A7205D687118A35691DFDA06924799
:10272000D41AE2E81524DBD6416BDD241C5358355E
:10273000274A3D3250DDC199B5924743BE0F630928
:102740007365A16DF778408F499E3212254A64DE89
:1027500091D830EF5816A9CEA6A13DD954CD56DC5C
:102760001FF2338B9CCA61F1E62A158B51FF09F2E7
:10277000F11AF2CD29116D07A5EA3E49102D6D1D04
:10278000ACC4C3F1EE299313FA71923E651E0EBEDE
:10279000C9A41C4B8D00D8793952CDB50CAAC841BB
:1027A000863A9963D979924ED0B582AEC1413F390C
:1027B0000E81BFBD141E57193A7A41A66CDD899768
:1027C00056DC1FF287A1CC9E47A50E5CEDE23F19B7
:1027D000934BDB65DACAAD296CDD24EBDCA9A13EA5
:1027E000B865ECCA661766DE937DA45419F3C91662
:1027F0004F5CD9A21E4BA16C6F8911F5EA757ECF93
:10280000F713E66CAEF1DED8D260D8E48CCD881335
:102810006EDB43114EDBD1605917A55C59A3214BE8
:1028200095B39C4B19F32916E95CA7347F3A05BE92
:102830009C4BA1EF0C8737C8D9A4214B05AE9C4B0C
:102840009897DA8A84AEAE418E3D75ABB1120DAD6C
:10285000C9065CCA82246EDB465B56DC12F4D918CA
:10286000A05CC9A41D4BA687DF70A3656975EECF78
:102870000E146CDD506656DCF1463965FCDFC97B11
:10288000DECC6568AEA991DFC9ED0ADD41A63E3414
:102890007571DEC891C0C9081CEBC97BE2068D0AC0
:1028A00091DA950FD7E522E7C3C2E6AF0F14DBF844
:1028B00092DDCE3E3FEFCE8AE9029529D54921F03F
:1028C000D385D2CCC0116EDB0DC94EDBC55E591766
:1028D000635E51CD75050546DE49D1EFF9851E2CA5
:1028E000C989267405744848928E9A796CCDC911AD
:1028F000DEDC06F3DEDAC15EC9184B5ECDCE7009B0
:102900000EE1DEDA915ED16588CDC811DEDA060F00
:10291000DC2991F1CA8585BED9A40E4907FDDEDA0E
:10292000C25EDD42A1E30CC68EDA062B7ED8C25E03
:102930005E4122CCC8116EDB363948F5933ED9652D
:10294000D0CDCC11DEDC0947DAA991F1FB850BE390
:1029500079A4DF49A5C6EF491FF2F4BD907D680157
:102960006CDDC17750DD5872181662CBD9A2744A5B
:102970000E667FB991F15F8676CA192566DE659786
:10298000AEA991DFD8FA06DDA9FC4E29050CD13E8F
:1029900091E1511A74B5B9F1DECA14E6DECA951395
:1029A000D8FA26E341A6DF298D3CA24873E1AC08A2
:1029B000B8CB86A42A2C05563DA91FF2FB8F38669A
:1029C0002801E22A152550DD9A960AD56DA959A34A
:1029D000994B9541644B913E4A455BBE86A266DEAB
:1029E000547281DAFD5FD506607D50056CDD44FBD5
:1029F0005C891FF21399EDDC96A22DDA8D6891DACD
:102A0000F0F1358688DFC134A73D9599D64921F08C
:102A1000D38502CCFA116CDDC10D588921F0FD85FA
:102A200038E25ECD6CDDCC33D4C89CE12816E1CF12
:102A300041A62DDC64A6B248578DC9665EBE47A587
:102A4000215305D2D34FA09D7279CABF28F1A9CADC
:102A500093C59D43F0EF181650CB951272DF21CE2F
:102A60004ADEF78D396575C8C5A271E06B38A801DB
:102A7000F5EF3124845F5835F76CC68EB166106D62
:102A8000489062CDC111447870D3AEA9F7B33FCD61
:102A900074CF5AA7EADA9800B6D6015F5AA97171C5
:102AA000B6205D546536ED4977B32FB45CBEAF6692
:102AB000549169224DDF9DEF5C1C52C1B9126F6DBC
:102AC00074EEA14610692918425E41A6ED78055AB8
:102AD000DEDAC55E2FB43D04B9F1449E7B95BAD8C9
:102AE00024F4D516F7C9A1B04E4A96CFD16691F31A
:102AF000D042940BAF404E296BACA801F5EF5C1BA4
:102B00008CCF5AA846E875064F6DA08DC91A86E38A
:102B100041A65A4A12F6CFA9A2E1C9080FDC5B937D
:102B200066DE81224DCB23E0D466BBBED894DECCDA
:102B3000E9B256DC0D5F5C072ADCC0F3EF2916BC56
:102B4000DECA19F3181899CD9F40232F05AC3FA971
:102B50005E8D57199754C134CF3905BA3CA9513EFF
:102B60005719A154C134973905883CA9523E5719C9
:102B7000B354C134973D462777B99B3ED96570CA97
:102B8000C0494218641491D819F34586EEDD2A94A1
:102B90006CDD278656DC0D5F5C07FABE47A5005E3C
:102BA0008D34A24873DFAC08A6CAEB2666DE8D3AE8
:102BB00091DBF0F0381749CC46A47DDC542E81DA45
:102BC000112E581709E997C8247711CA836DFF821F
:102BD00048A9DF9E87125FDF3DD81DA9613E5719C6
:102BE000FA62C292465776FB8DDD1EBD68D4324A2A
:102BF000C008254A946551D920EE281633CF56A235
:102C00006DDA8493B1D9F0EE181502CB86A33DDBC3
:102C10007483A1DB20F16818D7CD96A45E19948D3A
:102C200093FEEF154FB45C5F25126E29A2ED90481C
:102C300012F4FF8677BE19F16CDD9F07A94871DF9A
:102C4000BA0609DFC092F8CAD5A950DD519A7406B8
:102C5000A75FC992EFCA0758CF54A2E1C908410142
:102C6000CAF1EE294D6B87572175527C63CE46A180
:102C70006DD964E291D830EF581685CEA6A13DD922
:102C8000541156DCE0F0281767CCB6A36DDCA41C09
:102C900091DAF0F1495599CC84C83C008BB22448B4
:102CA0007D5F5965B99E87125FDF3BAA1DA9613E12
:102CB0005719A862BE12BECAF63815C89ADFE306D5
:102CC00090BE47A58E85B046A94891DFDA064C51E3
:102CD000D82EEFCC05564116943ED9651450902F4E
:102CE0006E608E1451D920EE581535CF86A27DDA4C
:102CF0009460A1D900EE281537CE41A63A4A5C6906
:102D000043DB2EF066171ACC93A8FA4AAA51610643
:102D10000A5F7165CB5F54A388DE6EECA248FEB9F2
:102D200048D432DC589370CB98ABD712B0AD4586FF
:102D300020DC41A66509E667A248F76D3AA21EDFCE
:102D40006B347F3DEB66E7BE923E511ACCBE41A686
:102D50006DDCA4C091DAF0F1E586E65FA5122DA046
:102D6000642E8248913EDB6868BF5AF1AADAC85CDB
:102D700056B9ADF15C1B3ACF5AA8A17C9D8D4DDFB1
:102D8000ADF15C1C92C805A274E0C8B846B927F43E
:102D9000E51884C9D9A7AADA150E1D793152D91BB5
:102DA000BCCDD9A86309C69646B9A1F455183EC949
:102DB0000192A2798D4546CA59DF8DA8DDAA59D165
:102DC000584A7494A10601DF31063449400576CB98
:102DD000D48E0106121EF2863C71AB2C4660052C87
:102DE000D11622F46A1B656E4007574A65B7A106E3
:102DF000A1DF42861F07B660374A2FA2E106A38EE5
:102E00008A7582DDCDF1EADC1E2A77B9913EE16553
:102E1000339E59937ADBC5F70AA9EA5FF3DEA11165
:102E2000A01229A2646A9748956DDAA2D05FA66ABB
:102E30005D98E5B23B79194E9908B507D6605A4AB4
:102E400005C0DD79225261074B9ECD41673DA1DD72
:102E50001116558E8A7C5A9EB2124DA284121EC83B
:102E60005A8E5175F4DDC670CDA80424DA79B255B6
:102E700042869206B660DECA08494EB9933EC9083A
:102E8000795FCEB6E0799577DFA998054286660925
:102E9000B660DECA0AA34EB99544C908655FAA6B3D
:102EA0005D980522DC79214ECA652ADDB01271F3E6
:102EB000642091D830EF5816B0CB86A33DDB742D3B
:102EC000A1DB20F1681809CD96A45E19527A80FE24
:102ED0009D5F57197C48539377CB063CCFA9713E31
:102EE000B965A3BE19F16CDDC5D5D7C8ABDF4A1BE8
:102EF0006ADDC094E62F1F173AA8BF5F98E4A111BE
:102F000047A5645F4E8584C935482BB326BEBB3FB9
:102F1000254AEFF250DDE9734186FA06B6607ECAB3
:102F2000B5C1F24853FD09866BC1D91EB0E8152220
:102F30004F6D9D6BE6A2ACDDC094254AEFDCF048F6
:102F400060BDA8D44ACA4F27E82915AB3AA91FF299
:102F5000788B5DCE46A13DDA54C841D820EF4815A4
:102F60008FCE96A12DD98DF2A248F7B748D47FDC39
:102F700059935A4A6D2EA10622E05907805FAB6C27
:102F80005D9896014ECB0D5F35DF751158936ECB72
:102F90008190BA1010AD5A0788DCB51244A484D0D1
:102FA0004FCB21E045864605B6606FCB952FA248F2
:102FB000FBB848D4A5DC59935A4A67E2A10622E03F
:102FC00059073E5FAD6C5D98964B4ECB0D5F37DF7A
:102FD0002F1158936ECB0D8DC1060D5F5A07CEDCB5
:102FE00059A38F4C8D7091DBF0F04817E3CD56A4B8
:102FF0002DDC6460B2481FF2FD9C245F8712C1295A
:10300000DFE16BA9048C4B6816BE67F49C38C7E3FC
:103010009A67523E1DB365BE15A471DFE18E4DDE89
:1030200027F4451732C950A76ADC9EBC42DF2DF059
:10303000651C2DC855A47DE081386BC235E91C1391
:1030400082D00AF1EEDF01D4CEDEA7F4A518D8C9EC
:10305000DAA77ADB18C2C7DF2DF0E21C8FC855A3B0
:1030600031E08262B21E10AD59070B0E58A760DF27
:10307000EB52CFBF2BE8640F865FA96B5D9895FD7F
:10308000A04800B748D4A7BE69945C4A73D4A1068F
:10309000433E79086A5FA46A5D989519A048FDB718
:1030A00048D4B2DCB71249A284E61ECA0F5F33DEF1
:1030B0004F11CDF1DECC53B6D710B0AD25863A71A5
:1030C00054A3E8DE6E32A048F1B748D44ABE961247
:1030D000F678A241C4DCFA55C908245FA2695D985C
:1030E0000C01DECA0F5F33DD171158936ECB83EEF0
:1030F000B61110AD5A07E6DCB71244A184B24FCB2B
:1031000021E04786E006B6606FCB9589A048F3B60C
:1031100048D403DC59935C4A6943A10621E0478601
:10312000C304B6606ECB09C1D3EE0F5F2BDFD111A4
:1031300059935C4A666FA10621E0652B22F856B7C9
:103140005C4A6B19A10651E14786AF04B6607ECC9C
:103150008350B11E10AD6908A65FA7685D98B5DC05
:10316000A048FEB548D476DCB71247A08422D1A986
:1031700091E147869C09B6606ECB9DD1DCAA9A0985
:10318000632F9CF496A22DDAA41851D810EE2815BE
:103190005FCE41A66DDCA40491DAF0F1D5865EBE67
:1031A00099F1E637224A50DDB5965719D14CB11244
:1031B0004A5882ACD9E232F40DB56B5BD8083DDADF
:1031C000545041D820EF511A67CCF6A32DDB645D33
:1031D000B1DB10F05818C9CD86A43DDC850D51DB5C
:1031E000DE15273C685FAF3F79CB9F69904812F4AA
:1031F000A96582BE08F1AE29936D6E759BDFE4066A
:1032000001C8D294E8CC0E86C666A2AEE0B506AE82
:1032100013D1E5799EE596481FF23C9C95DFD9F1E4
:103220005FE08122B046107D3194D341A7205D68D4
:103230006E6AA00691DFDA065ADFEA9112C97ABFF8
:10324000386A7A4EF786080116606CDDC75BA648BF
:10325000F1B648D4D4DFCA416E3907BBDECA107E4E
:103260008A7685A241D1564A6531A1069F8BCCB59D
:103270007CAECBF1DECC4FF785C9D65FB8B270CA51
:103280009126564A65DDA10631DF7965205F0BB0D6
:103290001E4AC80CCE4463FDD9928B7AC51EFB66CC
:1032A0002022D4CAD65FB8B2065F0770BD98933BA0
:1032B0001C5F9ADFD0B5AFAE81126CDD39AA96489B
:1032C0001FF2F19BC99EB1123EA184844ECBD95FFF
:1032D0005719214981126CDD4FC196481FF2A69CF7
:1032E000285F8EA7C2299373C45F99816275265F98
:1032F00047A528617DF4B71210ADCA657CDD46A1F3
:103300006DD9949381D8E0EF681605CFB6A14DD959
:10331000648191D9D0EEF81510CBA6A35DDB948C17
:1033200041DAE0F12818AA5F321229DFEDCD50DD35
:10333000AB74D1A8B5ABB1124BA48474DEC8A2DFC4
:10334000EB06F1DF48A7FF663654DECAA2E1EB08C0
:10335000E3DDA1127E29B5B71BA791DFDA06FCDFFA
:10336000FA92607789A5E8DCB8F3E01AEBCB43A5C5
:103370003040CD54D2E4AC0BD2ACFE799E12EBDCE3
:103380000280761650AD6B1BA86C78168F404D8E60
:1033900050DD6E754E45615F59936FCB971F4DCBD6
:1033A000F0EF1816BBCF46A25DD9743B56DCED5F3B
:1033B000241B495F61F15FD9922B7F19F255571990
:1033C0009D4941A68DDBC45511DB70F0B817B1CC17
:1033D000C6A3FDDB3447E1DBE0F0281733CCB6A30E
:1033E0006DDCA47091DAF0F14955EA8E84C83C0096
:1033F00005606C4A938EE17A796E7805E029056C58
:103400005C4D21F04C89009ECBF1DEDC8709DFA901
:1034100091F14C899CBEC9A4624D09FBDEDA1662AB
:10342000D136AD3EC1CADEDAF129DE3691F1B5857D
:10343000D2BEBDF1DE2915D76AAF51EFB5851FCFDA
:103440006D3C7EDCF1458248B4B805D470CD48A708
:10345000E2791656CFBE933EC918325E4FD1E6FAD6
:10346000051ED6F0A03EC918165E61ABDE381D827F
:10347000CEDA0661C918825DD9A4554C05EEA84A7A
:10348000A1F1428804CDB114EEDC8088DEDA0B6154
:10349000D9186F5DC9A45A4C150AA14A91F1478801
:1034A000F2B5AC3FB1297A8939A9978CAD653870EE
:1034B00031FCC577F8552967F94D97B35EBE173FC4
:1034C0005A33B4EDADA9508CF5680070EAF1387745
:1034D0003539F567C33E04B3F1B97AF198CCAE5CE7
:1034E0005EA9213EC916E45DCB419F3987DD1FBD32
:1034F000923ED916095C50278239873BDFA9121EFC
:10350000C965EBDFB392DFDC7F8AB7CA11815279DC
:10351000539EC134373A0EF6CEA919FDD98617C18C
:10352000791E76E8B5284F6D3EB487D410DD6294DD
:10353000534AE5B22FC8DA5F57199856C9A2644DAD
:103540000D62AFB9FCDF45062FD7399EE670FCB29D
:10355000DEDCA98D57192C64A2925ACAACD86EC071
:1035600052E79B0E6ACA674C6CDDCC518248DC5F27
:10357000E58699DFB592DECE16FC76464A7D4B4550
:10358000A0BE79F1554AB6047ECA1D1EC916885AD6
:10359000C1346F397A945F89075FC9060DDFBE12A7
:1035A000EFCC0520A94872EFBA16D55FC138D546D1
:1035B0000524C6661FF2C3BF645F8212524A062CFE
:1035C000CFDAB2F1FA18895FB1124C5884D2BE46F4
:1035D000027D37942B41AB655A989A594ACB21E02A
:1035E0005A07F0DC5A93514A967B4FDB505F3B867B
:1035F000D1CF66128E294EF6D646AA7DD194674168
:10360000CB20F1687604DFDAA2F168860301566008
:103610008029B5F39C47E47CEB93A9404A416F4E67
:103620008ED13E869547DC6548CF13146CDD403D56
:10363000D2AEA43EA916325D47A5195B06DDDEDADF
:10364000176258154BCE46A16DD964DA91D830EF88
:103650005816ADCEA6A13DD954C9E1D9C0EEE815A2
:10366000EFCE36A1CDD9E4F711D950EE781566CB5F
:1036700056A36DDB94C351DB2282581863CD66A438
:103680009DDCD41001DA80F1C81805CDD6A40DDC7C
:10369000440291DA00F148185EEF47A5A881119E17
:1036A0006ED8116285ACDECA89A45E4D053C6C4AB9
:1036B000928E1A7934CF4B15F1781D98DFB89D8121
:1036C000BA7642CF5A15EEDA99CDF6485979A290DA
:1036D0001A5F59A4724D85444D4D6C3ED2C04B5972
:1036E00061016EDBA0E14589313E6345405F0C69B5
:1036F000B1896A131D786F65B1791ACF5215467971
:10370000CDF5AEA9FF6D48A4E707B560EFCC058CF9
:103710004EDB6E61C9160D5AC670DEDCA0197CA99D
:10372000B38DF965D95FA770599805AAC666A481BB
:103730006276BE7DE412A258DA26D66AD252438659
:10374000AD00B260DECA16C6E6487979C290855FE0
:10375000CC70EF897CB5D175B065B9791306156069
:10376000584AF6E03ECAB4B805D476CC4CD1ABA7E3
:10377000E03EA44822E1490857016D41E63B84EE52
:10378000B1D8E0EF081629CFD6A2EDDA041C31D863
:1037900070EF9816ABCF66A27DDA940A51D9201C3F
:1037A0005815BDCE51A6DEDA86ADDF79824EC91638
:1037B000B15AC134BF3905265F4D948E9A753ECFFC
:1037C0004815E079EE31DDA9161EC965CF9EC8F116
:1037D0005F090733DE2D91F1C58555B2C9A4D849DB
:1037E0008D7426DD30F05817E7E846A36F6DB47C82
:1037F00061DA60F1A81899CD36A4EDDC246EF1DA17
:10380000D0F13818FBCDA9A25F4D75EBDED8895EEB
:10381000D9166B5E70407E2915F9DC62A489CDD77C
:10382000BC11A7205D68747FA206A2E1C908CECFB3
:1038300048154E29686FA20621E0C9163D5AC67088
:10384000DEDC8647DA79215257199945B6A24DDA5E
:1038500044C0F1D8B0EFD81627CF26A2BDDAD4CE17
:1038600061D840EF581569E046A17DD99DF8A2487E
:10387000EC5FC906E8CFD994EADC8DEE91DAD98DF8
:10388000D916FD5FEBFC1129716AADA9913E4E4539
:10389000BDCF74A27FDCB604D1169A75127C1CB31E
:1038A000DBF16CDDE2B29A792A4E0EB53DAA40D129
:1038B000DEDAB8B0CED84561D918895DC9A4924C7A
:1038C0008D01DED84461D916FD5DD9A4914C055C0B
:1038D0006B4AE0EF511AF9E9B1A54678753DB0465B
:1038E000107D38DD1811C992EFCAB45456DC91EF3F
:1038F000D88B736E2005DEDA15FFCED8A264491C82
:1039000039AEC8F1EE291594CF4F91F1D98B06CB82
:10391000C8F1DEDC1413DEA8A840D9188D58C9A45C
:10392000EE4F15B22148F3493C65AABE4AD16FDB80
:1039300096A3D1169A75227CB7B1D600C22A93AB52
:10394000714F19F3781779CC06A3BDDBF4DF21DBC7
:10395000A0F0E817FBCCF6A32DDB64C9B1DB10F0B7
:103960006818ADCD96A42B0063DE72DE20144119D9
:10397000AEE146CF2B08A5E6CE4F41EFDA8B40DD16
:103980006494E52BA5B4664E1A4E89450CCFE3121C
:10399000EEDA3092CEDA2E62C918865AC9A25A4C93
:1039A0001530A34AA1F16A8928CD6915DE29154F82
:1039B000824891F16D8926CD6C15FEDCABB9EEDA4B
:1039C00038625917E95A59A38A4D9559BA4B31EFC4
:1039D0000C86E2CF8D128EDCA4DD7EDA2F626916B2
:1039E0001E5D79A25D4CB5747D4D31F16B896ECD54
:1039F0006115EEDCAEF1FEDA3B62F918D75A59A335
:103A00008D4D9591704D21F02E87D99EE50011299D
:103A10003F96F7CE8140B0B36CBE3E3F4A2B333168
:103A2000BAA9CF8C2D73D4BEB39447CC99CFDF679E
:103A3000253EDAB31EB478F19ACCB0B8D2A8598C2E
:103A4000CD651A705DF107CE3FCCB3D80EEF030CF5
:103A5000F9D9B1984DCC5856D3D8ADEF5A1CF15F77
:103A6000012CB7544F6409B6151ED1ACF579CD2C95
:103A7000F3540A45CF4C1D52954591DFB5927EC94E
:103A8000B6018C489EEFE516795FA12C5754548EF1
:103A9000F46EA85BE91A2C712FF1E6581E82F456D9
:103AA000CC7DB31A75A9F5122B4AD02C02CE1FF289
:103AB000C3BFD95F3512A9CEE13CE4489985C082E5
:103AC00040CBD1406CDDFFFDC548BD5F1086785FFF
:103AD00047A53D8220D4F248E55FB616A1CFC4A227
:103AE000FADA93772970ED5F14861E5FC994EFCCE4
:103AF0002772EDCAE65FD61664CF58A85FDF126C56
:103B0000C2DA035F7A0726DCA69256CE580CB3DAE7
:103B10000DF11E8679CF35A26FE0F02B2F4C094EA8
:103B2000C965B2BE47A5D6832028F248055FA9061D
:103B300041DFCB92F1CA93A381701FF290BFE25F85
:103B400082125D38067DC14E454EC9BDDD5B6D01FB
:103B5000ED3015B35F899246F206E0DFC5A47DA87B
:103B60006781AEA97F6CC8A3C650F62F87CABFEE87
:103B7000711650AD83085FDDCDF1EE290D73C75787
:103B8000BCDF0506DDC8F59409CCD3850157278E27
:103B90005275CB91A4925CCA66A9AF4C6252CB72AB
:103BA00032BE47A5BB6005360C4A1FF23CAFBECC07
:103BB000C617DEDA15B3CED8A2644A1C2CCDD817AE
:103BC000DEDC15C572DF2014411914E146CF2B0845
:103BD000644091D830EF481537CE96A12DD9444F87
:103BE000F1D9B0EED81599CE26A1BDD9D47D61D931
:103BF00040EE511A74CFC617E079EE0FDED8A164FB
:103C0000D916935849A8973906E9CEA9A1F1DA8BBC
:103C100090CDD91766DE07F7DEDAA064D36E8CBECE
:103C2000D9A4EF4F05B6CE4F91EFCD87BCCFCC13C3
:103C3000EEDCE130DEDA6C615719D058C600FD3891
:103C4000E9A050DD4064511AF7CC86A33DDB74DD5A
:103C5000A1DB20F1681899CD96A4DEDA155BCED8E9
:103C6000A264CAB5F55B4001AC0935FB2148A34A03
:103C700032B3E1BEB03F852947577AA9E38C096585
:103C800050BE49F16E29B947D66A424E418669064F
:103C9000B560DECA0DB657BC0F5F29DD61112992F0
:103CA000CFCA7CA2DEC8A2DFB194D341B71242A52D
:103CB00081FE2FCA71E14786560AB560CFCCE53C3C
:103CC000D66E885BC91A5E7147A5D88361CC9548CA
:103CD000075FC90845DDEB9411CC9484410633F4A9
:103CE000CF6572BEA11F57676909AEA9DF6C28A313
:103CF00070714226A63B071ACCA91FF2A69CF0CAF7
:103D000058186EDB1403DED8A164D9169D5848A854
:103D1000EEDC1615DEDAA1642816D5CF56A26DDAD0
:103D200084B1B1D9F0EE181597CE41A68DDBC4BD94
:103D300001DB80F0C817B9CCD6A30DDB44AF91DB13
:103D4000F0F03817BBCC46A47DDC54D881DAF1EF13
:103D50000F8BA2BEA6685C9805D8DC791A4EE048A5
:103D600033BD8C3FB1295A495AA6243E37A9917ACE
:103D700029000477ED98E867E75F3616115FA734EE
:103D8000673D1343BF1991EF7B880B6E68061129BD
:103D9000438456B891EFA6881C6881058D007D0B81
:103DA000AEA9FF6D48A44907B560DECA162CA64827
:103DB000A2E1C9089BE1C992EFCA11E6CB09A2E1D1
:103DC000C90842CF1414EDA8055A034A361E41868D
:103DD00061DCE9937F0975378148B4B805D452CFC7
:103DE000CD470E3DB452A6DDFF6D48A40306B56075
:103DF000DECA1672A648A2E1C908D5E1C992EFCA87
:103E0000115CCB09A2E1C90884CFC670EADC89CF76
:103E1000ACA90F737179529EFBF11C5E8DE91A8972
:103E2000095F890675DFB1FE9E88E42CB7B8085F8C
:103E300033DFCE1169929170ACC46EDC356D7EA417
:103E4000985F64A49ADC6C469246EE7D179291438B
:103E500085203B6845068206075F2BD9AC1EA992D8
:103E6000EACA22E2F7485979A290A05FE338F54602
:103E700025E4E46659DFA20612DF3292E2581A60A6
:103E8000F856C87DD1081FDDE39419CC894DEBDCD1
:103E9000B8F3E01A13CBA3A630402218D2CA151EDD
:103EA0002186B3C8F5A30CDB8D3DBF55027A57E4DC
:103EB000AF11FFF1495F76B357B96F2D457411709B
:103EC000BAF11D77312BB467B43E43B378B0823F6B
:103ED000102960FD5EA9213E12665670D83D264A23
:103EE0008977AB4832EF7A16B75FB1FE7E88C4E8B7
:103EF00057BD731E45861851B63046587EE2B0460F
:103F0000107D29D8F811CD92F3CA2E0A16526A698B
:103F10001386B879DE0EFEDE3F361EC862DFAB06C2
:103F200053DFCD20F3682B38E95691E1DA088CDDB8
:103F3000FA9432293AA0F9DCA8F3D01AE6CB980813
:103F4000F3CC09C056D4F15F52229A5351AE2E568B
:103F50009675931FEFAD2086D5CFD5A25A4A445E01
:103F6000D66E885BC91AFE719F128ADAB84A79B494
:103F700041F38CB4277147A5EF84617A9548F73EE9
:103F8000FE1A25CBDEA6E5DE6F1C8FBEAEE1D5089E
:103F90006C5FF612E670FC6ADEDCA98D5719E464EA
:103FA000669696D2CE2C04C01FF277C0A2CA0E4BE2
:103FB0003A4A50B2C1CA9FE158E4A5116FF18E2967
:103FC00067CFAD5719F20AA119424B416F4E8E3F90
:103FD000D88691EFD88B576E50056CDD27C17B8B4F
:103FE000938E5275FD9C47A58267A4296FA94B73D8
:103FF0005179819EC9A2604C06C957B97F1E53B240
:1040000010BE4BAE4E4A889AAE4423FB39921F7ABB
:10401000A4675C98EB9429C89985C0829CCBD14059
:10402000564A7371A30632037CAC0DA379A6A1781E
:10403000D81E50DDA2992586F35FAFF113DE2CAABE
:10404000C9DC98F3331A97A9D512464A51428356D0
:10405000D16D1AA498519430209D61143ED81461FA
:10406000B96500493A188A3D2E6818526869038676
:104070007C9EC138F7700B6CC9423975828C62AA7C
:104080002B20D16887453EA9813ED56C1FBE47A530
:104090009F5C7D92B01B0EAD2926B6DF74923A4A22
:1040A00027BAED42AE5F12860279DE0EFEDE3F8059
:1040B00016C86ADFB306CDDFCD20F3682BA2E95620
:1040C00099E1E2086EDDF29462093A5EF9DCA8F348
:1040D000D01A38CB9B08FBCC115A9465EE822F8600
:1040E0002C5194305C4A71B7A20691DFDA0656B3C0
:1040F000C950F9508E01D088975F57D7E111B1129E
:10410000E1EA063357B9611FA9168C5C39A2E54B69
:1041100005F1CEA91FF2C1BF38CF7F158EDABC1BC7
:104120001ED8496299161F5A47A58C843B032967FC
:10413000798CA2B3F853942E2A5862249E1AEDADBE
:1041400075067FDF29A2B74CF5A93C5E84657579B9
:10415000F95F0F2CB5543F5652899985E2ACD8458A
:10416000DE1C8660BE6242BD736DBCA46E9E29F1EA
:10417000CE29099ACDA91FF28A98A25FDFA78ADA11
:104180001B166EA993FD29860BC1991EF0E8558276
:104190004F6D543E1E1A51CB03A63F407B9CB04648
:1041A000107D33D65911A9914FC97BAAB046107D15
:1041B0002DD64F1149926FCACBB8D645AA7AD19164
:1041C000594247267D4E91333789C23E039AC6AA8B
:1041D00076D1524A6E8AA50671DFBA065EDFDA92A0
:1041E0006CDDCCD98248DC5FF086A245101C544AB5
:1041F00073FEA15625745E8B64AAAD665A98A57E9F
:104200006FC853FD098645C1D91EB0E815004F6D32
:10421000743EDF1A93CB23A63F404D148756291EC8
:10422000F5866245181C725F9A2FCABDF5B345D456
:1042300010DF7892A0E845361DD6A16B9B24AE53C3
:10424000583561291BD0D9DC1BF32A7C8445901C8E
:10425000544A735CA156F9B245D48BDD8994752913
:10426000664F4AA9028C31919142F712E670FC9296
:10427000DEDCA98D57190C64423E7576AB506B6439
:10428000BA5FE1868ACA674CF94A318AA94871DF68
:10429000BA0610DFDA926CDDFCA03289023E439A46
:1042A000A8AA76D1524A6EF8A50671DFBA062CDFAD
:1042B000DA926CDDCC8F8248DC5FF186F445101C0D
:1042C000544A73CCA15625745E8B56AAAD665A9893
:1042D000A5506FC853FD09869BC1D91EB0E815D201
:1042E0004F6D843EDF1A61CB33A63F404DF68742C7
:1042F000291EF586BA47161A725F9AFDCABDF5B334
:1043000045D422DF7892A0E845081DD6A16B9B24F6
:1043100080535835C1291B82D9DC7BF32A7CD651C6
:104320009030544A732AA156F9B245D4A479D038B2
:10433000EA642238CFCA91E17065D8706DF1507788
:104340006D4DA755CF5FD1AC3FA3C9A6F67893DBDF
:1043500024731C8B60B270737C3E074A1D5C50DD79
:104360003F99E486C85F9E12CBDA02FAD3D8ADEF4C
:10437000571904679512294A7C78DECAA2E1EB0836
:1043800033DDAF122A586298901DEDAD3D8667016E
:10439000B260BECAF614DCC8A4DF5719DB649512FC
:1043A000294A1E20D6CA471E3F864451B630489A35
:1043B00082FE5EC822DF9B705D701AF1537771B187
:1043C000A357DD6B26A20A5194301E9C618232C82D
:1043D0008EDFB5D5AA11C138D546054EC666F75F42
:1043E00015943F418D623B98AD6867C831797A90EA
:1043F000B4797E0E9EDED9D850DDA2997173CDBE00
:1044000009F1AE299391A772316D7AA4DB5F58A7A9
:104410009ADCB380FDDD151EF3A923BF6A3F8F75BB
:1044200005B02148B9745179C993C9A2584C15BE39
:10443000A54AC94BC9C4AD5998014D380D0EC04E9F
:104440003D4ED2C1D55B6D014029888BBEA9121E9D
:104450002A65D2CF3B124660D6A9BEDA835F48AC4C
:1044600087A3B9A645A58128DEC81FF21498EECF10
:104470007B14E079A6814EDB12625719AF4551AA31
:10448000600905635C8991EF4A8884CAFF253DDA9B
:10449000540041D820EF481577CE96A12DD9440F6E
:1044A000F1D9B0EED815D9CE26A1BDD9C43D71D968
:1044B00019F3A916365C39A2E14B1151CFA91FF2AD
:1044C000EB8DA2CF8A12CEDA49C8D66E885BC91AA4
:1044D000487147A5D883A546E54841EF05869ECF9C
:1044E000F412AEDA43E450DD3F995719AB64C9A228
:1044F000E04B1562DD4B9779E09090BE39F16CDDB1
:10450000493A3EDA1761C0AC6FA339A6294A0D00BB
:10451000C756043EAF946141B3A63F400B12C95643
:10452000A1F1FE86A4CDFD126EDB3A284EDBC561FB
:10453000C965A2BE9512DEDC903DCEDA1D62E91897
:104540004D5AF9A46C4D07AACCA91FF2A69CCECF58
:104550001B146CDD787F56DC20F1681893CD96A48F
:104560008229B58376524267B3741ABE4BD1C458C0
:10457000FC6E74DCF355D1AC0FA3C9A6F67893EBAF
:1045800024739C5F21B44F71D712E47816A2FD66A4
:10459000C38D0586595F62FE9D29CE7F0EAD1FF249
:1045A00077C08BB17EFBA933D94C50DDF09769659C
:1045B00080BE09F3AF2D93238170ED5F14863ECD4D
:1045C0007315EEDCC0C1FEDA4D62F918F15AD7124C
:1045D000DE7816FCFD66C38D0586175F69F18E29AE
:1045E000C5030FAD1FF277C0C0BF7BF3A238D50A59
:1045F00050DDF09725863D5FC9A4944D156E694D39
:10460000B1F18189B4CD70153DDA549A41D820EFCB
:10461000511A5DCC16A3CDDB048BD1DBB0F0F817BB
:104620009FCC86A33DDB74B5A1DB20F16818E1CDFA
:1046300096A42B00638277DE20144119E2E146CF75
:104640002B0863424FDFAA3E46865BCCD3A6474089
:104650001350571630ADB686B9BEB9F1D570ECA27D
:104660002EDC55859EAC20451E1C5D6D7FF9B06D1E
:10467000F4F2E2ACF3A3D9A68070B85C76524A6932
:10468000B79CFD595005344A711B5B895F75A88C36
:1046900081AA9F125ADB1380C14E2A52218672CC06
:1046A0004CD18C60C4A24FBDE95F45179DC84670D0
:1046B0007D988D279F55E27A2DB54B5B400896CEAD
:1046C000E040C7CC9BDF9C24E8735835E7E8C5E29F
:1046D0004F6D35797508FFDF069287E815F04F6D4D
:1046E00056FD99B2F57ADC2CFBCCCD74DE642282C7
:1046F0006C24C2735835E164137ADDAAB98CCD6598
:10470000B870D9F4E77719E7C767713EB965FB5F01
:104710005993324AA187A548F2B03DD4E8CEB212EF
:104720004C9A796CEAD8313E79656ABE19F16D769A
:10473000961659B421F3AFA94F7A292BCF535011B4
:10474000836DD85A1919027A1C35AA61E245FA66B6
:10475000C0BD118643A38A125FE0815AB046107D26
:1047600031949B41AD2053680689CEA99D6DE6A486
:104770009851B030EECA2EE8CE64228268996AAAB7
:10478000C8F15F09146AC6D6918B5AA9A4518F1239
:10479000354547925FDE0D5F37946541A12057682C
:1047A00069AEAB56923ED9652451D43046587EB09E
:1047B000DEC8B9FDE9B2A77A5227723D065D5F896E
:1047C000A04DF124447358359658D4940106548E64
:1047D0009A8ADBAEF5E0334AB24A0348055F7A189D
:1047E000AF5F6B346F39B8C4D7BD9441DD6581B319
:1047F00032F1A129D51550DD2B9AC96868BE2BFF6F
:10480000D929C8E30EA91FF263C10C9E2670DD985A
:10481000E8212F4C1A4EC45431C846C756DD63A058
:1048200051F7DE1D2816E9CF56A26DDA84BDB1D945
:10483000F0EE18158BCEE6A1FDD914AB21D980EE90
:10484000A8150DCE41A62DDC64DAB548EB5F7516D0
:10485000B271B638454675C24C5F55527A1CB0519C
:10486000B63046587E7A7EC842DF54458CCBB9A616
:104870004C58846CB6460A7D69064BDF79A67FDE0C
:10488000C4CE67CA39E15A1BA4CF58A8407884A87F
:10489000B9B401F35B9BD2AA78A84C588482B6467F
:1048A0000A7D690695DF42D13EDE753EB046107D39
:1048B00031944B4169928FCAB52C7FDC50AD84088E
:1048C000EADD5BA78ADA9750BC66108530823ECB62
:1048D0005B27A23DB642B046107D31942541C99276
:1048E000EFCA9023BEDC01F337941541A12057682D
:1048F0000570CFC8A1F3CA1A6711D494EACC646ECC
:1049000091D819F3CD6586CDC617ED3824E23AA8C3
:104910001FF2788B1ACAA317E63718FB50DD9A9658
:10492000CD74B3BED9A4EF4F05BACE4F19F3D91643
:104930007C5AD034A739CD18D979194E8F65BECF9E
:104940000215C82A93D19D4319F3181893CD89F104
:104950002E298352BF3901CE35DDA411C992DEDC88
:10496000D0653BAE1FF2FB8FE629C147573D95FD51
:10497000654B21F08387F6CF0215C92FC59550DD11
:10498000D468D36514BE47A5E781051A154D7C444C
:104990008C659CCA8A1BDEDAD09D35A8593F571911
:1049A0006354C9F16CDD1C83DFA9161E6A1B6A689B
:1049B0009816D73F055581D8E0EF511A73CD96A4CC
:1049C0002B00637472DE2014411914E146CF2B08CA
:1049D0000540154D7442F786910116608429B53F54
:1049E00050DDA068D1A8F7AF76927E290D68CEA9D8
:1049F0009389DCB06EDDC09497CEA51BD4CCA13ECC
:104A0000CBB09175D594E9CCC08C7EA99DE3D965D6
:104A10009275DA3CFCCC1294904812F4B86A6ABEE3
:104A200009F4B22993B17D6D923E4A45ACBE65A7AB
:104A30006DFF7DA780F6201C1644E5CF86A266DEBA
:104A400054D281DA1FF227A9C07D4005A00905DEF6
:104A5000714A9981EA79B9BBBDF1072E39BD9DAC88
:104A6000E53E8C65E5CFD8A28BDAC2FADC52A469A8
:104A7000DE1AF5CBC0A4F7DCC629FFBE3B1EC91663
:104A8000DF5AD9A2BE4DA516074D41EFA3890C45AB
:104A9000DA1CEEDCD991DEDA6462C916FD5AD9A2BD
:104AA000C04DA532054D41EFA5892845DA1CEEDC45
:104AB000DBB5DEDA6662C916DB5AD9A2C24DA52E75
:104AC000034D41EFA7894445DA1CEEDCDDC9DEDA8F
:104AD000686228161BCF41A6DEDAD0DFDEDA5B6221
:104AE000B566A2BF47A52153060956DC21F095897A
:104AF000E0CC02156EDBCFF3DED83D61A916D35DA5
:104B000047A5676C0594714A1FF2F5A702CAEC35F8
:104B1000E66CBEE350DD7D83D1A803AEC8F1DEDCD8
:104B2000D125F7ACC53E2F67DBBECFF15FD992BD73
:104B3000DF19F255511AF9CD96A42B00638A72DE63
:104B4000201441199AE146CF2B0805DA144D7C4117
:104B5000F7861B0116608429B5B950DDA068D1A87D
:104B6000E9AF76927E290DE2CEA99389DCB00DBE25
:104B7000DCA6E5DEEFE0BFBEABE1D20845DB69F1C4
:104B8000E8CE1563DC62A489BC651FCBCEA6D8DE57
:104B90006666C2CA9CE1840AB8BEC596EE2907B40F
:104BA000CD62F43EDE1A21CBA3A63F40232ED3CA0A
:104BB000DF5F4A1BDBBB3DF1A12CD95B50DD3482AA
:104BC000CA65C39EC9F18ADF947FA6DDEF1D5843F5
:104BD0001DE196A22DDA8D42D1DBB0F0F81761CC41
:104BE00086A33DDB7477A1DB20F1681823CD96A462
:104BF0006CDD20D6D66A1A5243467ACFC617E279C0
:104C00008EF1E68891EFD98B98CFD8177F2909309C
:104C1000CC4EEA53C9160C5DD9A2794C858A6FBD7A
:104C200091EF6588B4CF54145EE0F6DB61ACD48CB0
:104C30007D65E17003F2E277C8D9CA67123E596513
:104C400013BEAC3F4F750387DED82F61D916515D77
:104C500049A8BF4007B5DEDA845F5917395A59A30E
:104C6000C44D95F1394D21F0B1897ACC20156EDB18
:104C7000EF754EDB7C625917145A59A3CB4D95ED55
:104C8000304D21F0B88996CC39159EDAE4890ED8DA
:104C90007162AFACC3A329A6D478050A3B4DA1EF3E
:104CA000AF8902CF2E150EDAEDADDA46A67DEFA460
:104CB0000741C9A4C34D1524384DB1F1B0890ECDBB
:104CC00021159EDAE6C10ED87362AFAC9BA329A66C
:104CD000D4780542374DA1EFB3897ACF22150EDA89
:104CE000F1E5DA46A67DEFA45F41C9A4C74D157C66
:104CF000344DB1F1B48946CD25159EDAE8F90ED8C8
:104D00007562AFAC53A329A6D478059A334DA1EFB1
:104D1000B789B2CF26150EDAF51DDA46A67DEFA4C7
:104D20009741C9A4CB4D15B4304DB1F1B8899ECD92
:104D30003915DEDA1533CED8A264CAB5AD5B4001B1
:104D40006E0AE1831E6652AE3F868BCF98A2CD4A93
:104D50007950DFD8A2EF98869045901C3548889FFF
:104D60008EDCD2F328D4AE5FFE126CDD4956C76EDE
:104D7000985BD91A885FA7205D686621A506ED5F5C
:104D8000F3943941EF6F1A98A5086FC89EEFE516A6
:104D900081C9612C9754BC685D8941F36A1AA111DD
:104DA00065289B50A950964812F40086A2CA8D4CE3
:104DB000F7700C4ECEDC0D5F37944541A86B5998C7
:104DC00061C0F446CC7DEFE3741169928FCA125E24
:104DD000C2D822F571A0EF557E106109B5487FDC7D
:104DE00050AD759CD95955059EDCF8EA688620BD02
:104DF00068D4F66E581667392A36718611EFBC866C
:104E0000E070B635C54A510B8355DD6A26A1F85FBF
:104E1000A26A5998E5942FC893DFDC060DBE5F2780
:104E2000754F9D25474F1D525965CD5F85203B68C5
:104E3000463E8F54DD6D26A4F70692608238B6DFB9
:104E40001EA9613E5719BF65709486CC7B4CB11189
:104E50000CAD090585DE55257B4DC1AE7CC844DF10
:104E60008084419EBE124C588476B8170DAD0F86D3
:104E7000F251DA30C029F59750DDD599BA081EDD18
:104E8000AE122A58629A9E17EDAD0B9F5F54DF1247
:104E9000A270BC6E1EDC658DA965EAB4C6F1EE2970
:104EA000933589724AE17108E29E4B416739CC6FB4
:104EB0004F6A1A4E8D45D6CF2C15CEDAEBB9DED817
:104EC0007862D916AC5A8D002A77462B8267F28A0F
:104ED0003AB1755FDF126CDD7EE26EDA2C61691823
:104EE000FA5D59A37F4C95757E4A71EFB2899ECFCA
:104EF0002315DEDAF0F1CED87D62F0866A5F47A531
:104F00005784B590434A31F165881ACC6A146EDB38
:104F1000A7123ED87E62B916765AC9A2CD4D158E1B
:104F20002E4DB85FDF8628CAB04C7E99B76D6EDA19
:104F3000306169182A5D59A3834C95A97A4A934B2D
:104F4000DB654CCA1428DEDAAE4BD33691F172879A
:104F50005ECA58186CDDA55CDFAD1FF226AF4ECCE3
:104F6000C617DEDA1563CED8A2644A1CFCCDD8176A
:104F7000DEDC1575A1AC008C3D65857083F23129AE
:104F800032659467B53E23B398BEF1FFE977386F79
:104F9000C567B28AFAB1D8DF1692554A051CCFC848
:104FA00039DF82062645DA1C9F5ED6AEC7B9AD5FF3
:104FB00002863A793E0EDEDE1D96C448513E996562
:104FC000CECAD84C034A19C650DD0A993F86FFDD88
:104FD000699461097BD4CFCA91E168E4FEBE79F19E
:104FE000405778FD7CDFD36C1CA3F96EE8073DDAEF
:104FF000546041D820EF481517CE96A12DD9446FA3
:10500000F1D9B0EED8150ECB86A33DDB749FA1DBA2
:1050100020F16818DBCD96A42B0063AC72DE20145F
:105020004119FCE146CF2B089EAB44CB2CE0650731
:105030002DDC57937DCB9DB147CF2BE4640B22D859
:1050400047A5484F14AAC1A6753F5719635849F19F
:105050006E295177836D7B3E2FB3AB7247A53C6DB4
:105060000D4257BD551ED46561655118663DC4AFEC
:105070001ED870629916165A2F38B546E5E828668C
:105080009ADFE3062FDFF592E2581A94F856C87DAE
:10509000D20808DDE2941ACCC5083F4D61EFAB8918
:1050A000C6791E0EBEDEFB88D3C8AFDFF80616DB5E
:1050B000CD20F3682BAAE9569EE1E70813DDF198AD
:1050C0009EDAE8C70ED87562AFAC9DA329A6D47846
:1050D0000E54C4CCBCE3050A5C51DC3004683CC00F
:1050E000D7CEABE5F40C5AD941A51F6556F19648C9
:1050F000C85F5719446549A87F3D936F644F1FF2FD
:105100006DB580B2D8F16CDD2931511630ADD06665
:1051100010695118673927D89F5DE26252795E9E07
:10512000A7355D6DEEA424C89CDFE5068B5FDF121A
:105130006CDD7E08D748AB5F59181D5D49A4844CCF
:1051400095D2044D11F1A28925DF3792EDCA1DCA0F
:10515000F948A75F5719AF65C012F84A95CE774A4C
:1051600011F1718874CD15155EDCE06F37CC8BE3DF
:10517000D40AEEDBEE12F44A93EDA7729A5FE3864F
:1051800090CD62145EDCAF844EDA6F624918D35A58
:10519000CBFEF0299301035E1FF235AA92CA691C67
:1051A0006CDD96A4D4A9A13EAD65A4CA66178ADFBA
:1051B0009407A6DDEF1D584375E196A22DDAA42EC3
:1051C00051D810EE381519CE86A166DE81CCDEC826
:1051D000F05FF7DC6B1165A2F6782484DC5E515237
:1051E00028864A51F82E70DF11784CDEA1E1511A61
:1051F00060DDC9F166DEA46491DAF0F13586F0CAAB
:10520000AF397678530450DDF78681B42CBE801216
:10521000DF58160E81D8E0EF681612CBA6A35DDB2F
:1052200094B241DAE0F12818288E84C83C00112E8F
:1052300025481B1E11867FDD23946CDD6B15A94864
:1052400092F1C8862EDF0092EC760B50DA5EA15107
:1052500058155DCE96A22DDAA4C851D810EE381597
:1052600068CBB5124CA084287EC8385B5745B25F26
:10527000EB200F6697E332DA23F578E45CDDB512B4
:105280004BA084CCDEC8976DC90882CB46A47DDCD8
:10529000540281DAFD5F566C8CBE8112CA78930B82
:1052A0006F607E8DC0ACC1A333A6264A93396F6070
:1052B000F0EF1816ABCF46A266DE542981DB10F062
:1052C0005818DDCD86A43DDC945B93FEEF15D586A2
:1052D00026708F3F35778D17A84872EFB886165F16
:1052E00000946CDDB6CC17C89D8BD89E6849E90444
:1052F0006DD9646291D830EF581605CE96A12DD99C
:105300008D9451DA30F1C9180D58A1403F99693F89
:105310000EBD013E3794E941A3695C98A59C6FC816
:10532000513E9965209E69F19035C6CB0EA9933EFA
:10533000C918F25E29F1D72912DACEA91FF220C0CE
:10534000C95FD3125F9995077E09419E7F1A69CB89
:105350005EA665DE4072FD66A38DCAB4DCCD8C11FD
:105360005EDC4963DED8D25ED1EEEACD88117DDA0B
:1053700094E056DC30F0581777E846A36F6DB4EC34
:10538000D1DAB0F1381879CDD9A22449051CDD4C09
:10539000A0BDD8FCB4CFCD16E060C66BBED8946378
:1053A00039654909B360EECC053ADD4C10EF38168B
:1053B0002FCFC6A28DDA942751F720EE6815A6CB21
:1053C000A9A2E24E7525B51E0BADC906ECCFCD16D0
:1053D000EEDA08D6775E624ED9165E5BD670EEDCEA
:1053E00009E4CED89563E8FC78CDCD1666DE547C12
:1053F00050DDF18711B4F8CAA93A9678A51D9748EF
:105400009D6DDAA2CBCF41A6DEDA080ECED8956329
:10541000D2A09D2941A6DEDA091CBBA1063E31942B
:10542000D143C99266DE15B6DC4CF23E3E65C751EB
:10543000B82EDECC05A4DC4CA0BDC918BE5BC9A249
:10544000E04E1434DEDA93632A71BABEC992DEAB41
:1054500005D256DCE0F1281857CC84C83C001EDC8D
:1054600050DD2488E206EF7147A5717394FD81D861
:10547000E0EF511AF4CFCB16EEDA067ED752A0D564
:10548000511A8DCD56A42DDC641A5EA1213E11B4B3
:1054900040BE47A598731D9676524267759CA359E6
:1054A0008D043DDA543441D820EF511AB3CC46A3D1
:1054B0006DFF94214F6DA0F1E81855CDB6A4EEDA3A
:1054C00007C4DED89263E19C59AEA9A2DF4E752FC6
:1054D000B1160BADC90656CD8F11DEDA06D8D1163E
:1054E00091F1CA8A64CFC816EDC00578DF4CA1EFF0
:1054F000CA8A72CFCB16F660AE0DDED8D25ED80265
:1055000080CD88115DDA7496C1D8A0EF581501E0FE
:1055100046A17DD99D8050DD1588D1A845AEA9A2B0
:10552000E24E75C3B51E0BADC906A46D50016CDD0E
:105530006518AF8619F3481737CD56A42DDC64AC37
:10554000D248FD5F17DC9911C192E9A893D91F6376
:105550009F4157194774B112DFCA93CF4D6399DF4A
:1055600057197174D192564A06E8D7461FF25CAFBC
:105570008F7A4FD14D56766ADCC81FF25CAF8DCA68
:10558000C192564A7D93EEBAFEB548D40CDF47A5CA
:105590007173640291D830EF581665CE41A6DEDCF7
:1055A00003A54EDB1062D76C3CBEB51270DB54AE67
:1055B0004EDB116357192D7441A62DDC642E36661F
:1055C0009442C918BA5A59A35D4D532C8AA92BF09D
:1055D0005917D25B87126CDDB6F090481FF2E4AF2A
:1055E0003FCF86A266DED47501DB80F0C81761CCA0
:1055F000D6A30DDB446791DBF0F0381703CC46A44B
:105600007DDC549081DA298DCCB502AE17D2E02E24
:105610000582204D21F0488908CC34156EDB851AAF
:10562000D3AEA53EAAB428CA783AEDFF7DB9CED94B
:105630006361629A1DAECBFEF029E61450DDF5766B
:105640000B7290BE2AF144777665B2470E7CBF6537
:105650009770983D2A576249B7A9BF8CFAB1F250AA
:10566000F42F5A29F44B2F657D6CC6A3C3BE033FAC
:10567000AF75D17D0357113EB216F7B9DDF16CDD80
:10568000B6A8A94872EFC88605B9DDF16CDDB6A6EB
:10569000A84872EFB8861BB9DDF16CDDB6B4AB4833
:1056A00072EFA88629B9DDF16CDDB682AD4872EFE4
:1056B00088863FB9DDF16CDDB690AC4872EF788634
:1056C0004DB9DDF16CDDB6EE5116148EF27B43B9A7
:1056D000DDF1BEDA69D750DD4287D66C48BE29A21B
:1056E000434B93776F60D34B1B6559BCA23F4F75FB
:1056F00071FFA35731400BB32972851F3B67BB1D58
:10570000FD67C28AF593BB4000F3C277F6213247AA
:105710008E7CA3655170183DEAD22292EC481FF2AC
:105720000DC0E95F47A5A4720FA4C5C4C35F571994
:10573000F46582126CDDCB1EA94872EFC886B3B93E
:10574000DDF16CDDB66CA84872EFB886C1B9DDF149
:105750006CDDB67AAB4872EFA886D7B9DDF16CDDA7
:10576000B648AD4872EF8886E5B9DDF16CDDB64626
:105770005F1933F449A8F7A8C4F8F229E5ECA14B66
:105780001FF27AAE09B9DDF1BEDA838950DD4287B6
:10579000D66C06BE29A25F4C930D6F609E45DD65F9
:1057A000C0CF49146CDDB68ED3AEA53EAF6ADDBE68
:1057B0000AF16CDDE29CD3AEA53EA916E55D47A5D6
:1057C0008F721224CAA971EFA388C4CA783AEB3049
:1057D00019313ED843615719E977C4F8F229E83CFA
:1057E0002DA9553E5719BB77C4F8F229E57C5C4AD0
:1057F0001FF27AAE79B9DDF1BEDA88F850DD428762
:10580000D66C96BE29A2624C939D6F609E45DD6565
:1058100075BE3AF1A129938303609E45DD657ECF75
:1058200065146CDDB60CD3AEA53EA916015D47A587
:105830008F7212D4CAA971EF778834CA783AEB30E4
:1058400019A13ED8406157197977C4F8F229E5DEED
:105850006E4A1FF27AAEDBB9DDF1BEDAB65E50DD1C
:105860004287D66CF0BE20F4D129C88B50DD6E87FC
:10587000D66CE6BE2BF5D129CB9950DD6E87D66C60
:1058800014BE2AF6D129C86750DD6E87D66C1ABEC1
:1058900029A2664C93016F60DA3ED66C08BE29F1EE
:1058A0006CDDB68A9F19DA55D66C3EBE203E6CDDA3
:1058B000B698CF5F3A4ECB722ABE203E6CDD69A708
:1058C000D1F79E45DD65C8CAD23B3DDA545C41D86C
:1058D00020EF48153BCE96A12DD9444BF1D9B0EE1F
:1058E000D8159DCE26A1BDD9D47956DC40F08817B5
:1058F000BFCC16A3CDDB0465D1DBB0F0F81741CCEB
:1059000086A33DDB7497A1DB20F16818C3CD96A474
:105910002B0063A473DE20144119C4E146CF2B0889
:10592000B120A24812DF58B921AA89D35E7E35DBA7
:10593000587D1A52E347316A71055F7D8EC9DD8B50
:10594000159252752C9D14D1667D8EBFEC8B1992E9
:105950005179D79C45456739E39A758A18935279EE
:10596000A39E4146A63D875257BDCA1E4FBA1FAEE1
:1059700049466739D5B6CD8B18945279169C4B4859
:10598000673DCC405F7F1A4E8F48369C49A4DC4D62
:105990009503A14D21F0C68988CC4916DEDA049E14
:1059A000DD792252AE6BA79E2DF7EB30194D50DDFD
:1059B0004287D66C20BE2FF26CDDB692D3AEA53EE8
:1059C000AB65CCCA783AEB3019293EA91FF27AAE02
:1059D0005DB9DDF1BEDA04D650DD4287D66C4ABE31
:1059E00020F1D129C90550DD6E87D66C78BE24F12F
:1059F000D129CD1350DD6E87D66C6EBE29A2774CAF
:105A0000ECC15EDA8F625917F75A59A3DB4D959DA9
:105A10005E4C1E425D65F5BBA73F42298333ADA9AD
:105A2000E08C4186A5CFD8A2ED4A93BF1860085FED
:105A3000CA16A3CF36126CDDCB10DEA9A13E5719D2
:105A4000067783A5CF4005A7CEA91FF28FAECEBEA5
:105A5000D9F16CDDCB7CDEA9A13E57191A77C9F1CB
:105A6000EE2993F71860154D5C651CBEAE3F564A93
:105A700006E0CFD8A05FCDD7E21147A5A4726FEBA7
:105A8000EFBE91EFC98716CFC8136CDDCBA4DED86B
:105A90009360D916175C47A5A472050ADA4BA1EFEB
:105AA000CE87ACCA0F3ADEDA0BABCED89860B365BE
:105AB000C0BE47A50E8450B650DD5787C916845C1A
:105AC000D9A2994B935118609E45DD65ACCF601308
:105AD0006CDDB6FAD3AEA53E57194174D5D36CDD53
